{
  "contractName": "NFTMarketplace",
  "abi": [
    {
      "inputs": [],
      "stateMutability": "nonpayable",
      "type": "constructor"
    },
    {
      "anonymous": false,
      "inputs": [
        {
          "indexed": true,
          "internalType": "address",
          "name": "owner",
          "type": "address"
        },
        {
          "indexed": true,
          "internalType": "address",
          "name": "approved",
          "type": "address"
        },
        {
          "indexed": true,
          "internalType": "uint256",
          "name": "tokenId",
          "type": "uint256"
        }
      ],
      "name": "Approval",
      "type": "event"
    },
    {
      "anonymous": false,
      "inputs": [
        {
          "indexed": true,
          "internalType": "address",
          "name": "owner",
          "type": "address"
        },
        {
          "indexed": true,
          "internalType": "address",
          "name": "operator",
          "type": "address"
        },
        {
          "indexed": false,
          "internalType": "bool",
          "name": "approved",
          "type": "bool"
        }
      ],
      "name": "ApprovalForAll",
      "type": "event"
    },
    {
      "anonymous": false,
      "inputs": [
        {
          "indexed": true,
          "internalType": "uint256",
          "name": "tokenId",
          "type": "uint256"
        },
        {
          "indexed": false,
          "internalType": "address",
          "name": "seller",
          "type": "address"
        },
        {
          "indexed": false,
          "internalType": "address",
          "name": "owner",
          "type": "address"
        },
        {
          "indexed": false,
          "internalType": "uint256",
          "name": "price",
          "type": "uint256"
        },
        {
          "indexed": false,
          "internalType": "bool",
          "name": "sold",
          "type": "bool"
        }
      ],
      "name": "MarketItemCreated",
      "type": "event"
    },
    {
      "anonymous": false,
      "inputs": [
        {
          "indexed": true,
          "internalType": "address",
          "name": "from",
          "type": "address"
        },
        {
          "indexed": true,
          "internalType": "address",
          "name": "to",
          "type": "address"
        },
        {
          "indexed": true,
          "internalType": "uint256",
          "name": "tokenId",
          "type": "uint256"
        }
      ],
      "name": "Transfer",
      "type": "event"
    },
    {
      "inputs": [
        {
          "internalType": "address",
          "name": "to",
          "type": "address"
        },
        {
          "internalType": "uint256",
          "name": "tokenId",
          "type": "uint256"
        }
      ],
      "name": "approve",
      "outputs": [],
      "stateMutability": "nonpayable",
      "type": "function"
    },
    {
      "inputs": [
        {
          "internalType": "address",
          "name": "owner",
          "type": "address"
        }
      ],
      "name": "balanceOf",
      "outputs": [
        {
          "internalType": "uint256",
          "name": "",
          "type": "uint256"
        }
      ],
      "stateMutability": "view",
      "type": "function",
      "constant": true
    },
    {
      "inputs": [
        {
          "internalType": "uint256",
          "name": "tokenId",
          "type": "uint256"
        }
      ],
      "name": "getApproved",
      "outputs": [
        {
          "internalType": "address",
          "name": "",
          "type": "address"
        }
      ],
      "stateMutability": "view",
      "type": "function",
      "constant": true
    },
    {
      "inputs": [
        {
          "internalType": "address",
          "name": "owner",
          "type": "address"
        },
        {
          "internalType": "address",
          "name": "operator",
          "type": "address"
        }
      ],
      "name": "isApprovedForAll",
      "outputs": [
        {
          "internalType": "bool",
          "name": "",
          "type": "bool"
        }
      ],
      "stateMutability": "view",
      "type": "function",
      "constant": true
    },
    {
      "inputs": [],
      "name": "name",
      "outputs": [
        {
          "internalType": "string",
          "name": "",
          "type": "string"
        }
      ],
      "stateMutability": "view",
      "type": "function",
      "constant": true
    },
    {
      "inputs": [
        {
          "internalType": "uint256",
          "name": "tokenId",
          "type": "uint256"
        }
      ],
      "name": "ownerOf",
      "outputs": [
        {
          "internalType": "address",
          "name": "",
          "type": "address"
        }
      ],
      "stateMutability": "view",
      "type": "function",
      "constant": true
    },
    {
      "inputs": [
        {
          "internalType": "address",
          "name": "from",
          "type": "address"
        },
        {
          "internalType": "address",
          "name": "to",
          "type": "address"
        },
        {
          "internalType": "uint256",
          "name": "tokenId",
          "type": "uint256"
        }
      ],
      "name": "safeTransferFrom",
      "outputs": [],
      "stateMutability": "nonpayable",
      "type": "function"
    },
    {
      "inputs": [
        {
          "internalType": "address",
          "name": "from",
          "type": "address"
        },
        {
          "internalType": "address",
          "name": "to",
          "type": "address"
        },
        {
          "internalType": "uint256",
          "name": "tokenId",
          "type": "uint256"
        },
        {
          "internalType": "bytes",
          "name": "_data",
          "type": "bytes"
        }
      ],
      "name": "safeTransferFrom",
      "outputs": [],
      "stateMutability": "nonpayable",
      "type": "function"
    },
    {
      "inputs": [
        {
          "internalType": "address",
          "name": "operator",
          "type": "address"
        },
        {
          "internalType": "bool",
          "name": "approved",
          "type": "bool"
        }
      ],
      "name": "setApprovalForAll",
      "outputs": [],
      "stateMutability": "nonpayable",
      "type": "function"
    },
    {
      "inputs": [
        {
          "internalType": "bytes4",
          "name": "interfaceId",
          "type": "bytes4"
        }
      ],
      "name": "supportsInterface",
      "outputs": [
        {
          "internalType": "bool",
          "name": "",
          "type": "bool"
        }
      ],
      "stateMutability": "view",
      "type": "function",
      "constant": true
    },
    {
      "inputs": [],
      "name": "symbol",
      "outputs": [
        {
          "internalType": "string",
          "name": "",
          "type": "string"
        }
      ],
      "stateMutability": "view",
      "type": "function",
      "constant": true
    },
    {
      "inputs": [
        {
          "internalType": "uint256",
          "name": "tokenId",
          "type": "uint256"
        }
      ],
      "name": "tokenURI",
      "outputs": [
        {
          "internalType": "string",
          "name": "",
          "type": "string"
        }
      ],
      "stateMutability": "view",
      "type": "function",
      "constant": true
    },
    {
      "inputs": [
        {
          "internalType": "address",
          "name": "from",
          "type": "address"
        },
        {
          "internalType": "address",
          "name": "to",
          "type": "address"
        },
        {
          "internalType": "uint256",
          "name": "tokenId",
          "type": "uint256"
        }
      ],
      "name": "transferFrom",
      "outputs": [],
      "stateMutability": "nonpayable",
      "type": "function"
    },
    {
      "inputs": [
        {
          "internalType": "uint256",
          "name": "_listingPrice",
          "type": "uint256"
        }
      ],
      "name": "updateListingPrice",
      "outputs": [],
      "stateMutability": "payable",
      "type": "function",
      "payable": true
    },
    {
      "inputs": [],
      "name": "getListingPrice",
      "outputs": [
        {
          "internalType": "uint256",
          "name": "",
          "type": "uint256"
        }
      ],
      "stateMutability": "view",
      "type": "function",
      "constant": true
    },
    {
      "inputs": [
        {
          "internalType": "string",
          "name": "tokenURI",
          "type": "string"
        },
        {
          "internalType": "uint256",
          "name": "price",
          "type": "uint256"
        }
      ],
      "name": "createToken",
      "outputs": [
        {
          "internalType": "uint256",
          "name": "",
          "type": "uint256"
        }
      ],
      "stateMutability": "payable",
      "type": "function",
      "payable": true
    },
    {
      "inputs": [
        {
          "internalType": "uint256",
          "name": "tokenId",
          "type": "uint256"
        },
        {
          "internalType": "uint256",
          "name": "price",
          "type": "uint256"
        }
      ],
      "name": "resellToken",
      "outputs": [],
      "stateMutability": "payable",
      "type": "function",
      "payable": true
    },
    {
      "inputs": [
        {
          "internalType": "uint256",
          "name": "tokenId",
          "type": "uint256"
        }
      ],
      "name": "createMarketSale",
      "outputs": [],
      "stateMutability": "payable",
      "type": "function",
      "payable": true
    },
    {
      "inputs": [],
      "name": "fetchMarketItems",
      "outputs": [
        {
          "components": [
            {
              "internalType": "uint256",
              "name": "tokenId",
              "type": "uint256"
            },
            {
              "internalType": "address payable",
              "name": "seller",
              "type": "address"
            },
            {
              "internalType": "address payable",
              "name": "owner",
              "type": "address"
            },
            {
              "internalType": "uint256",
              "name": "price",
              "type": "uint256"
            },
            {
              "internalType": "bool",
              "name": "sold",
              "type": "bool"
            }
          ],
          "internalType": "struct NFTMarketplace.MarketItem[]",
          "name": "",
          "type": "tuple[]"
        }
      ],
      "stateMutability": "view",
      "type": "function",
      "constant": true
    },
    {
      "inputs": [],
      "name": "fetchMyNFTs",
      "outputs": [
        {
          "components": [
            {
              "internalType": "uint256",
              "name": "tokenId",
              "type": "uint256"
            },
            {
              "internalType": "address payable",
              "name": "seller",
              "type": "address"
            },
            {
              "internalType": "address payable",
              "name": "owner",
              "type": "address"
            },
            {
              "internalType": "uint256",
              "name": "price",
              "type": "uint256"
            },
            {
              "internalType": "bool",
              "name": "sold",
              "type": "bool"
            }
          ],
          "internalType": "struct NFTMarketplace.MarketItem[]",
          "name": "",
          "type": "tuple[]"
        }
      ],
      "stateMutability": "view",
      "type": "function",
      "constant": true
    },
    {
      "inputs": [],
      "name": "fetchItemsListed",
      "outputs": [
        {
          "components": [
            {
              "internalType": "uint256",
              "name": "tokenId",
              "type": "uint256"
            },
            {
              "internalType": "address payable",
              "name": "seller",
              "type": "address"
            },
            {
              "internalType": "address payable",
              "name": "owner",
              "type": "address"
            },
            {
              "internalType": "uint256",
              "name": "price",
              "type": "uint256"
            },
            {
              "internalType": "bool",
              "name": "sold",
              "type": "bool"
            }
          ],
          "internalType": "struct NFTMarketplace.MarketItem[]",
          "name": "",
          "type": "tuple[]"
        }
      ],
      "stateMutability": "view",
      "type": "function",
      "constant": true
    }
  ],
  "bytecode": "0x60806040526658d15e176280006009553480156200001c57600080fd5b506040518060400160405280601081526020017f4d657461766572736520546f6b656e73000000000000000000000000000000008152506040518060400160405280600481526020017f4d455454000000000000000000000000000000000000000000000000000000008152508160009080519060200190620000a192919062000104565b508060019080519060200190620000ba92919062000104565b50505033600a60006101000a81548173ffffffffffffffffffffffffffffffffffffffff021916908373ffffffffffffffffffffffffffffffffffffffff16021790555062000218565b8280546200011290620001e3565b90600052602060002090601f01602090048101928262000136576000855562000182565b82601f106200015157805160ff191683800117855562000182565b8280016001018555821562000182579182015b828111156200018157825182559160200191906001019062000164565b5b50905062000191919062000195565b5090565b5b80821115620001b057600081600090555060010162000196565b5090565b7f4e487b7100000000000000000000000000000000000000000000000000000000600052602260045260246000fd5b60006002820490506001821680620001fc57607f821691505b602082108103620002125762000211620001b4565b5b50919050565b61429a80620002286000396000f3fe60806040526004361061012a5760003560e01c80636352211e116100ab578063ae677aa31161006f578063ae677aa3146103f9578063b88d4fde14610415578063be9af5361461043e578063c87b56dd1461045a578063e219fc7514610497578063e985e9c5146104b35761012a565b80636352211e146102fb57806370a082311461033857806372b3b6201461037557806395d89b41146103a5578063a22cb465146103d05761012a565b806312e85585116100f257806312e8558514610228578063202e37401461025357806323b872dd1461027e57806342842e0e146102a757806345f8fa80146102d05761012a565b806301ffc9a71461012f57806306fdde031461016c578063081812fc14610197578063095ea7b3146101d45780630f08efe0146101fd575b600080fd5b34801561013b57600080fd5b5061015660048036038101906101519190612ae1565b6104f0565b6040516101639190612b29565b60405180910390f35b34801561017857600080fd5b506101816105d2565b60405161018e9190612bdd565b60405180910390f35b3480156101a357600080fd5b506101be60048036038101906101b99190612c35565b610664565b6040516101cb9190612ca3565b60405180910390f35b3480156101e057600080fd5b506101fb60048036038101906101f69190612cea565b6106e9565b005b34801561020957600080fd5b50610212610800565b60405161021f9190612e80565b60405180910390f35b34801561023457600080fd5b5061023d610a68565b60405161024a9190612eb1565b60405180910390f35b34801561025f57600080fd5b50610268610a72565b6040516102759190612e80565b60405180910390f35b34801561028a57600080fd5b506102a560048036038101906102a09190612ecc565b610d5e565b005b3480156102b357600080fd5b506102ce60048036038101906102c99190612ecc565b610dbe565b005b3480156102dc57600080fd5b506102e5610dde565b6040516102f29190612e80565b60405180910390f35b34801561030757600080fd5b50610322600480360381019061031d9190612c35565b6110ca565b60405161032f9190612ca3565b60405180910390f35b34801561034457600080fd5b5061035f600480360381019061035a9190612f1f565b61117b565b60405161036c9190612eb1565b60405180910390f35b61038f600480360381019061038a9190613081565b611232565b60405161039c9190612eb1565b60405180910390f35b3480156103b157600080fd5b506103ba611274565b6040516103c79190612bdd565b60405180910390f35b3480156103dc57600080fd5b506103f760048036038101906103f29190613109565b611306565b005b610413600480360381019061040e9190612c35565b61131c565b005b34801561042157600080fd5b5061043c600480360381019061043791906131ea565b6113b6565b005b61045860048036038101906104539190612c35565b611418565b005b34801561046657600080fd5b50610481600480360381019061047c9190612c35565b611656565b60405161048e9190612bdd565b60405180910390f35b6104b160048036038101906104ac919061326d565b6117a7565b005b3480156104bf57600080fd5b506104da60048036038101906104d591906132ad565b61199c565b6040516104e79190612b29565b60405180910390f35b60007f80ac58cd000000000000000000000000000000000000000000000000000000007bffffffffffffffffffffffffffffffffffffffffffffffffffffffff1916827bffffffffffffffffffffffffffffffffffffffffffffffffffffffff191614806105bb57507f5b5e139f000000000000000000000000000000000000000000000000000000007bffffffffffffffffffffffffffffffffffffffffffffffffffffffff1916827bffffffffffffffffffffffffffffffffffffffffffffffffffffffff1916145b806105cb57506105ca82611a30565b5b9050919050565b6060600080546105e19061331c565b80601f016020809104026020016040519081016040528092919081815260200182805461060d9061331c565b801561065a5780601f1061062f5761010080835404028352916020019161065a565b820191906000526020600020905b81548152906001019060200180831161063d57829003601f168201915b5050505050905090565b600061066f82611a9a565b6106ae576040517f08c379a00000000000000000000000000000000000000000000000000000000081526004016106a5906133bf565b60405180910390fd5b6004600083815260200190815260200160002060009054906101000a900473ffffffffffffffffffffffffffffffffffffffff169050919050565b60006106f4826110ca565b90508073ffffffffffffffffffffffffffffffffffffffff168373ffffffffffffffffffffffffffffffffffffffff1603610764576040517f08c379a000000000000000000000000000000000000000000000000000000000815260040161075b90613451565b60405180910390fd5b8073ffffffffffffffffffffffffffffffffffffffff16610783611b06565b73ffffffffffffffffffffffffffffffffffffffff1614806107b257506107b1816107ac611b06565b61199c565b5b6107f1576040517f08c379a00000000000000000000000000000000000000000000000000000000081526004016107e8906134e3565b60405180910390fd5b6107fb8383611b0e565b505050565b6060600061080e6007611bc7565b9050600061081c6008611bc7565b6108266007611bc7565b6108309190613532565b90506000808267ffffffffffffffff81111561084f5761084e612f56565b5b60405190808252806020026020018201604052801561088857816020015b610875612975565b81526020019060019003908161086d5790505b50905060005b84811015610a5d573073ffffffffffffffffffffffffffffffffffffffff16600b60006001846108be9190613566565b815260200190815260200160002060020160009054906101000a900473ffffffffffffffffffffffffffffffffffffffff1673ffffffffffffffffffffffffffffffffffffffff1603610a4a57600060018261091a9190613566565b90506000600b60008381526020019081526020016000209050806040518060a0016040529081600082015481526020016001820160009054906101000a900473ffffffffffffffffffffffffffffffffffffffff1673ffffffffffffffffffffffffffffffffffffffff1673ffffffffffffffffffffffffffffffffffffffff1681526020016002820160009054906101000a900473ffffffffffffffffffffffffffffffffffffffff1673ffffffffffffffffffffffffffffffffffffffff1673ffffffffffffffffffffffffffffffffffffffff168152602001600382015481526020016004820160009054906101000a900460ff161515151581525050848681518110610a2d57610a2c6135bc565b5b6020026020010181905250600185610a459190613566565b945050505b8080610a55906135eb565b91505061088e565b508094505050505090565b6000600954905090565b60606000610a806007611bc7565b905060008060005b83811015610b28573373ffffffffffffffffffffffffffffffffffffffff16600b6000600184610ab89190613566565b815260200190815260200160002060020160009054906101000a900473ffffffffffffffffffffffffffffffffffffffff1673ffffffffffffffffffffffffffffffffffffffff1603610b1557600183610b129190613566565b92505b8080610b20906135eb565b915050610a88565b5060008267ffffffffffffffff811115610b4557610b44612f56565b5b604051908082528060200260200182016040528015610b7e57816020015b610b6b612975565b815260200190600190039081610b635790505b50905060005b84811015610d53573373ffffffffffffffffffffffffffffffffffffffff16600b6000600184610bb49190613566565b815260200190815260200160002060020160009054906101000a900473ffffffffffffffffffffffffffffffffffffffff1673ffffffffffffffffffffffffffffffffffffffff1603610d40576000600182610c109190613566565b90506000600b60008381526020019081526020016000209050806040518060a0016040529081600082015481526020016001820160009054906101000a900473ffffffffffffffffffffffffffffffffffffffff1673ffffffffffffffffffffffffffffffffffffffff1673ffffffffffffffffffffffffffffffffffffffff1681526020016002820160009054906101000a900473ffffffffffffffffffffffffffffffffffffffff1673ffffffffffffffffffffffffffffffffffffffff1673ffffffffffffffffffffffffffffffffffffffff168152602001600382015481526020016004820160009054906101000a900460ff161515151581525050848681518110610d2357610d226135bc565b5b6020026020010181905250600185610d3b9190613566565b945050505b8080610d4b906135eb565b915050610b84565b508094505050505090565b610d6f610d69611b06565b82611bd5565b610dae576040517f08c379a0000000000000000000000000000000000000000000000000000000008152600401610da5906136a5565b60405180910390fd5b610db9838383611cb3565b505050565b610dd9838383604051806020016040528060008152506113b6565b505050565b60606000610dec6007611bc7565b905060008060005b83811015610e94573373ffffffffffffffffffffffffffffffffffffffff16600b6000600184610e249190613566565b815260200190815260200160002060010160009054906101000a900473ffffffffffffffffffffffffffffffffffffffff1673ffffffffffffffffffffffffffffffffffffffff1603610e8157600183610e7e9190613566565b92505b8080610e8c906135eb565b915050610df4565b5060008267ffffffffffffffff811115610eb157610eb0612f56565b5b604051908082528060200260200182016040528015610eea57816020015b610ed7612975565b815260200190600190039081610ecf5790505b50905060005b848110156110bf573373ffffffffffffffffffffffffffffffffffffffff16600b6000600184610f209190613566565b815260200190815260200160002060010160009054906101000a900473ffffffffffffffffffffffffffffffffffffffff1673ffffffffffffffffffffffffffffffffffffffff16036110ac576000600182610f7c9190613566565b90506000600b60008381526020019081526020016000209050806040518060a0016040529081600082015481526020016001820160009054906101000a900473ffffffffffffffffffffffffffffffffffffffff1673ffffffffffffffffffffffffffffffffffffffff1673ffffffffffffffffffffffffffffffffffffffff1681526020016002820160009054906101000a900473ffffffffffffffffffffffffffffffffffffffff1673ffffffffffffffffffffffffffffffffffffffff1673ffffffffffffffffffffffffffffffffffffffff168152602001600382015481526020016004820160009054906101000a900460ff16151515158152505084868151811061108f5761108e6135bc565b5b60200260200101819052506001856110a79190613566565b945050505b80806110b7906135eb565b915050610ef0565b508094505050505090565b6000806002600084815260200190815260200160002060009054906101000a900473ffffffffffffffffffffffffffffffffffffffff169050600073ffffffffffffffffffffffffffffffffffffffff168173ffffffffffffffffffffffffffffffffffffffff1603611172576040517f08c379a000000000000000000000000000000000000000000000000000000000815260040161116990613737565b60405180910390fd5b80915050919050565b60008073ffffffffffffffffffffffffffffffffffffffff168273ffffffffffffffffffffffffffffffffffffffff16036111eb576040517f08c379a00000000000000000000000000000000000000000000000000000000081526004016111e2906137c9565b60405180910390fd5b600360008373ffffffffffffffffffffffffffffffffffffffff1673ffffffffffffffffffffffffffffffffffffffff168152602001908152602001600020549050919050565b600061123e6007611f19565b600061124a6007611bc7565b90506112563382611f2f565b6112608185612108565b61126a818461217c565b8091505092915050565b6060600180546112839061331c565b80601f01602080910402602001604051908101604052809291908181526020018280546112af9061331c565b80156112fc5780601f106112d1576101008083540402835291602001916112fc565b820191906000526020600020905b8154815290600101906020018083116112df57829003601f168201915b5050505050905090565b611318611311611b06565b838361237f565b5050565b3373ffffffffffffffffffffffffffffffffffffffff16600a60009054906101000a900473ffffffffffffffffffffffffffffffffffffffff1673ffffffffffffffffffffffffffffffffffffffff16146113ac576040517f08c379a00000000000000000000000000000000000000000000000000000000081526004016113a39061385b565b60405180910390fd5b8060098190555050565b6113c76113c1611b06565b83611bd5565b611406576040517f08c379a00000000000000000000000000000000000000000000000000000000081526004016113fd906136a5565b60405180910390fd5b611412848484846124eb565b50505050565b6000600b60008381526020019081526020016000206003015490506000600b600084815260200190815260200160002060010160009054906101000a900473ffffffffffffffffffffffffffffffffffffffff1690508134146114b0576040517f08c379a00000000000000000000000000000000000000000000000000000000081526004016114a7906138ed565b60405180910390fd5b33600b600085815260200190815260200160002060020160006101000a81548173ffffffffffffffffffffffffffffffffffffffff021916908373ffffffffffffffffffffffffffffffffffffffff1602179055506001600b600085815260200190815260200160002060040160006101000a81548160ff0219169083151502179055506000600b600085815260200190815260200160002060010160006101000a81548173ffffffffffffffffffffffffffffffffffffffff021916908373ffffffffffffffffffffffffffffffffffffffff1602179055506115946008611f19565b61159f303385611cb3565b600a60009054906101000a900473ffffffffffffffffffffffffffffffffffffffff1673ffffffffffffffffffffffffffffffffffffffff166108fc6009549081150290604051600060405180830381858888f19350505050158015611609573d6000803e3d6000fd5b508073ffffffffffffffffffffffffffffffffffffffff166108fc349081150290604051600060405180830381858888f19350505050158015611650573d6000803e3d6000fd5b50505050565b606061166182611a9a565b6116a0576040517f08c379a00000000000000000000000000000000000000000000000000000000081526004016116979061397f565b60405180910390fd5b60006006600084815260200190815260200160002080546116c09061331c565b80601f01602080910402602001604051908101604052809291908181526020018280546116ec9061331c565b80156117395780601f1061170e57610100808354040283529160200191611739565b820191906000526020600020905b81548152906001019060200180831161171c57829003601f168201915b50505050509050600061174a612547565b9050600081510361175f5781925050506117a2565b60008251111561179457808260405160200161177c9291906139db565b604051602081830303815290604052925050506117a2565b61179d8461255e565b925050505b919050565b3373ffffffffffffffffffffffffffffffffffffffff16600b600084815260200190815260200160002060020160009054906101000a900473ffffffffffffffffffffffffffffffffffffffff1673ffffffffffffffffffffffffffffffffffffffff161461184b576040517f08c379a000000000000000000000000000000000000000000000000000000000815260040161184290613a71565b60405180910390fd5b600954341461188f576040517f08c379a000000000000000000000000000000000000000000000000000000000815260040161188690613b03565b60405180910390fd5b6000600b600084815260200190815260200160002060040160006101000a81548160ff02191690831515021790555080600b60008481526020019081526020016000206003018190555033600b600084815260200190815260200160002060010160006101000a81548173ffffffffffffffffffffffffffffffffffffffff021916908373ffffffffffffffffffffffffffffffffffffffff16021790555030600b600084815260200190815260200160002060020160006101000a81548173ffffffffffffffffffffffffffffffffffffffff021916908373ffffffffffffffffffffffffffffffffffffffff16021790555061198d6008612605565b611998333084611cb3565b5050565b6000600560008473ffffffffffffffffffffffffffffffffffffffff1673ffffffffffffffffffffffffffffffffffffffff16815260200190815260200160002060008373ffffffffffffffffffffffffffffffffffffffff1673ffffffffffffffffffffffffffffffffffffffff16815260200190815260200160002060009054906101000a900460ff16905092915050565b60007f01ffc9a7000000000000000000000000000000000000000000000000000000007bffffffffffffffffffffffffffffffffffffffffffffffffffffffff1916827bffffffffffffffffffffffffffffffffffffffffffffffffffffffff1916149050919050565b60008073ffffffffffffffffffffffffffffffffffffffff166002600084815260200190815260200160002060009054906101000a900473ffffffffffffffffffffffffffffffffffffffff1673ffffffffffffffffffffffffffffffffffffffff1614159050919050565b600033905090565b816004600083815260200190815260200160002060006101000a81548173ffffffffffffffffffffffffffffffffffffffff021916908373ffffffffffffffffffffffffffffffffffffffff160217905550808273ffffffffffffffffffffffffffffffffffffffff16611b81836110ca565b73ffffffffffffffffffffffffffffffffffffffff167f8c5be1e5ebec7d5bd14f71427d1e84f3dd0314c0f7b2291e5b200ac8c7c3b92560405160405180910390a45050565b600081600001549050919050565b6000611be082611a9a565b611c1f576040517f08c379a0000000000000000000000000000000000000000000000000000000008152600401611c1690613b95565b60405180910390fd5b6000611c2a836110ca565b90508073ffffffffffffffffffffffffffffffffffffffff168473ffffffffffffffffffffffffffffffffffffffff161480611c9957508373ffffffffffffffffffffffffffffffffffffffff16611c8184610664565b73ffffffffffffffffffffffffffffffffffffffff16145b80611caa5750611ca9818561199c565b5b91505092915050565b8273ffffffffffffffffffffffffffffffffffffffff16611cd3826110ca565b73ffffffffffffffffffffffffffffffffffffffff1614611d29576040517f08c379a0000000000000000000000000000000000000000000000000000000008152600401611d2090613c27565b60405180910390fd5b600073ffffffffffffffffffffffffffffffffffffffff168273ffffffffffffffffffffffffffffffffffffffff1603611d98576040517f08c379a0000000000000000000000000000000000000000000000000000000008152600401611d8f90613cb9565b60405180910390fd5b611da3838383612661565b611dae600082611b0e565b6001600360008573ffffffffffffffffffffffffffffffffffffffff1673ffffffffffffffffffffffffffffffffffffffff1681526020019081526020016000206000828254611dfe9190613532565b925050819055506001600360008473ffffffffffffffffffffffffffffffffffffffff1673ffffffffffffffffffffffffffffffffffffffff1681526020019081526020016000206000828254611e559190613566565b92505081905550816002600083815260200190815260200160002060006101000a81548173ffffffffffffffffffffffffffffffffffffffff021916908373ffffffffffffffffffffffffffffffffffffffff160217905550808273ffffffffffffffffffffffffffffffffffffffff168473ffffffffffffffffffffffffffffffffffffffff167fddf252ad1be2c89b69c2b068fc378daa952ba7f163c4a11628f55a4df523b3ef60405160405180910390a4611f14838383612666565b505050565b6001816000016000828254019250508190555050565b600073ffffffffffffffffffffffffffffffffffffffff168273ffffffffffffffffffffffffffffffffffffffff1603611f9e576040517f08c379a0000000000000000000000000000000000000000000000000000000008152600401611f9590613d25565b60405180910390fd5b611fa781611a9a565b15611fe7576040517f08c379a0000000000000000000000000000000000000000000000000000000008152600401611fde90613d91565b60405180910390fd5b611ff360008383612661565b6001600360008473ffffffffffffffffffffffffffffffffffffffff1673ffffffffffffffffffffffffffffffffffffffff16815260200190815260200160002060008282546120439190613566565b92505081905550816002600083815260200190815260200160002060006101000a81548173ffffffffffffffffffffffffffffffffffffffff021916908373ffffffffffffffffffffffffffffffffffffffff160217905550808273ffffffffffffffffffffffffffffffffffffffff16600073ffffffffffffffffffffffffffffffffffffffff167fddf252ad1be2c89b69c2b068fc378daa952ba7f163c4a11628f55a4df523b3ef60405160405180910390a461210460008383612666565b5050565b61211182611a9a565b612150576040517f08c379a000000000000000000000000000000000000000000000000000000000815260040161214790613e23565b60405180910390fd5b806006600084815260200190815260200160002090805190602001906121779291906129d2565b505050565b600081116121bf576040517f08c379a00000000000000000000000000000000000000000000000000000000081526004016121b690613e8f565b60405180910390fd5b6009543414612203576040517f08c379a00000000000000000000000000000000000000000000000000000000081526004016121fa90613b03565b60405180910390fd5b6040518060a001604052808381526020013373ffffffffffffffffffffffffffffffffffffffff1681526020013073ffffffffffffffffffffffffffffffffffffffff16815260200182815260200160001515815250600b60008481526020019081526020016000206000820151816000015560208201518160010160006101000a81548173ffffffffffffffffffffffffffffffffffffffff021916908373ffffffffffffffffffffffffffffffffffffffff16021790555060408201518160020160006101000a81548173ffffffffffffffffffffffffffffffffffffffff021916908373ffffffffffffffffffffffffffffffffffffffff1602179055506060820151816003015560808201518160040160006101000a81548160ff02191690831515021790555090505061233c333084611cb3565b817fb640004f1d14576d0c209e240cad0410e0d8c0c33a09375861fbadae2588a98d33308460006040516123739493929190613eaf565b60405180910390a25050565b8173ffffffffffffffffffffffffffffffffffffffff168373ffffffffffffffffffffffffffffffffffffffff16036123ed576040517f08c379a00000000000000000000000000000000000000000000000000000000081526004016123e490613f40565b60405180910390fd5b80600560008573ffffffffffffffffffffffffffffffffffffffff1673ffffffffffffffffffffffffffffffffffffffff16815260200190815260200160002060008473ffffffffffffffffffffffffffffffffffffffff1673ffffffffffffffffffffffffffffffffffffffff16815260200190815260200160002060006101000a81548160ff0219169083151502179055508173ffffffffffffffffffffffffffffffffffffffff168373ffffffffffffffffffffffffffffffffffffffff167f17307eab39ab6107e8899845ad3d59bd9653f200f220920489ca2b5937696c31836040516124de9190612b29565b60405180910390a3505050565b6124f6848484611cb3565b6125028484848461266b565b612541576040517f08c379a000000000000000000000000000000000000000000000000000000000815260040161253890613fd2565b60405180910390fd5b50505050565b606060405180602001604052806000815250905090565b606061256982611a9a565b6125a8576040517f08c379a000000000000000000000000000000000000000000000000000000000815260040161259f90614064565b60405180910390fd5b60006125b2612547565b905060008151116125d257604051806020016040528060008152506125fd565b806125dc846127f2565b6040516020016125ed9291906139db565b6040516020818303038152906040525b915050919050565b60008160000154905060008111612651576040517f08c379a0000000000000000000000000000000000000000000000000000000008152600401612648906140d0565b60405180910390fd5b6001810382600001819055505050565b505050565b505050565b600061268c8473ffffffffffffffffffffffffffffffffffffffff16612952565b156127e5578373ffffffffffffffffffffffffffffffffffffffff1663150b7a026126b5611b06565b8786866040518563ffffffff1660e01b81526004016126d79493929190614145565b6020604051808303816000875af192505050801561271357506040513d601f19601f8201168201806040525081019061271091906141a6565b60015b612795573d8060008114612743576040519150601f19603f3d011682016040523d82523d6000602084013e612748565b606091505b50600081510361278d576040517f08c379a000000000000000000000000000000000000000000000000000000000815260040161278490613fd2565b60405180910390fd5b805181602001fd5b63150b7a0260e01b7bffffffffffffffffffffffffffffffffffffffffffffffffffffffff1916817bffffffffffffffffffffffffffffffffffffffffffffffffffffffff1916149150506127ea565b600190505b949350505050565b606060008203612839576040518060400160405280600181526020017f3000000000000000000000000000000000000000000000000000000000000000815250905061294d565b600082905060005b6000821461286b578080612854906135eb565b915050600a826128649190614202565b9150612841565b60008167ffffffffffffffff81111561288757612886612f56565b5b6040519080825280601f01601f1916602001820160405280156128b95781602001600182028036833780820191505090505b5090505b60008514612946576001826128d29190613532565b9150600a856128e19190614233565b60306128ed9190613566565b60f81b818381518110612903576129026135bc565b5b60200101907effffffffffffffffffffffffffffffffffffffffffffffffffffffffffffff1916908160001a905350600a8561293f9190614202565b94506128bd565b8093505050505b919050565b6000808273ffffffffffffffffffffffffffffffffffffffff163b119050919050565b6040518060a0016040528060008152602001600073ffffffffffffffffffffffffffffffffffffffff168152602001600073ffffffffffffffffffffffffffffffffffffffff168152602001600081526020016000151581525090565b8280546129de9061331c565b90600052602060002090601f016020900481019282612a005760008555612a47565b82601f10612a1957805160ff1916838001178555612a47565b82800160010185558215612a47579182015b82811115612a46578251825591602001919060010190612a2b565b5b509050612a549190612a58565b5090565b5b80821115612a71576000816000905550600101612a59565b5090565b6000604051905090565b600080fd5b600080fd5b60007fffffffff0000000000000000000000000000000000000000000000000000000082169050919050565b612abe81612a89565b8114612ac957600080fd5b50565b600081359050612adb81612ab5565b92915050565b600060208284031215612af757612af6612a7f565b5b6000612b0584828501612acc565b91505092915050565b60008115159050919050565b612b2381612b0e565b82525050565b6000602082019050612b3e6000830184612b1a565b92915050565b600081519050919050565b600082825260208201905092915050565b60005b83811015612b7e578082015181840152602081019050612b63565b83811115612b8d576000848401525b50505050565b6000601f19601f8301169050919050565b6000612baf82612b44565b612bb98185612b4f565b9350612bc9818560208601612b60565b612bd281612b93565b840191505092915050565b60006020820190508181036000830152612bf78184612ba4565b905092915050565b6000819050919050565b612c1281612bff565b8114612c1d57600080fd5b50565b600081359050612c2f81612c09565b92915050565b600060208284031215612c4b57612c4a612a7f565b5b6000612c5984828501612c20565b91505092915050565b600073ffffffffffffffffffffffffffffffffffffffff82169050919050565b6000612c8d82612c62565b9050919050565b612c9d81612c82565b82525050565b6000602082019050612cb86000830184612c94565b92915050565b612cc781612c82565b8114612cd257600080fd5b50565b600081359050612ce481612cbe565b92915050565b60008060408385031215612d0157612d00612a7f565b5b6000612d0f85828601612cd5565b9250506020612d2085828601612c20565b9150509250929050565b600081519050919050565b600082825260208201905092915050565b6000819050602082019050919050565b612d5f81612bff565b82525050565b6000612d7082612c62565b9050919050565b612d8081612d65565b82525050565b612d8f81612b0e565b82525050565b60a082016000820151612dab6000850182612d56565b506020820151612dbe6020850182612d77565b506040820151612dd16040850182612d77565b506060820151612de46060850182612d56565b506080820151612df76080850182612d86565b50505050565b6000612e098383612d95565b60a08301905092915050565b6000602082019050919050565b6000612e2d82612d2a565b612e378185612d35565b9350612e4283612d46565b8060005b83811015612e73578151612e5a8882612dfd565b9750612e6583612e15565b925050600181019050612e46565b5085935050505092915050565b60006020820190508181036000830152612e9a8184612e22565b905092915050565b612eab81612bff565b82525050565b6000602082019050612ec66000830184612ea2565b92915050565b600080600060608486031215612ee557612ee4612a7f565b5b6000612ef386828701612cd5565b9350506020612f0486828701612cd5565b9250506040612f1586828701612c20565b9150509250925092565b600060208284031215612f3557612f34612a7f565b5b6000612f4384828501612cd5565b91505092915050565b600080fd5b600080fd5b7f4e487b7100000000000000000000000000000000000000000000000000000000600052604160045260246000fd5b612f8e82612b93565b810181811067ffffffffffffffff82111715612fad57612fac612f56565b5b80604052505050565b6000612fc0612a75565b9050612fcc8282612f85565b919050565b600067ffffffffffffffff821115612fec57612feb612f56565b5b612ff582612b93565b9050602081019050919050565b82818337600083830152505050565b600061302461301f84612fd1565b612fb6565b9050828152602081018484840111156130405761303f612f51565b5b61304b848285613002565b509392505050565b600082601f83011261306857613067612f4c565b5b8135613078848260208601613011565b91505092915050565b6000806040838503121561309857613097612a7f565b5b600083013567ffffffffffffffff8111156130b6576130b5612a84565b5b6130c285828601613053565b92505060206130d385828601612c20565b9150509250929050565b6130e681612b0e565b81146130f157600080fd5b50565b600081359050613103816130dd565b92915050565b600080604083850312156131205761311f612a7f565b5b600061312e85828601612cd5565b925050602061313f858286016130f4565b9150509250929050565b600067ffffffffffffffff82111561316457613163612f56565b5b61316d82612b93565b9050602081019050919050565b600061318d61318884613149565b612fb6565b9050828152602081018484840111156131a9576131a8612f51565b5b6131b4848285613002565b509392505050565b600082601f8301126131d1576131d0612f4c565b5b81356131e184826020860161317a565b91505092915050565b6000806000806080858703121561320457613203612a7f565b5b600061321287828801612cd5565b945050602061322387828801612cd5565b935050604061323487828801612c20565b925050606085013567ffffffffffffffff81111561325557613254612a84565b5b613261878288016131bc565b91505092959194509250565b6000806040838503121561328457613283612a7f565b5b600061329285828601612c20565b92505060206132a385828601612c20565b9150509250929050565b600080604083850312156132c4576132c3612a7f565b5b60006132d285828601612cd5565b92505060206132e385828601612cd5565b9150509250929050565b7f4e487b7100000000000000000000000000000000000000000000000000000000600052602260045260246000fd5b6000600282049050600182168061333457607f821691505b602082108103613347576133466132ed565b5b50919050565b7f4552433732313a20617070726f76656420717565727920666f72206e6f6e657860008201527f697374656e7420746f6b656e0000000000000000000000000000000000000000602082015250565b60006133a9602c83612b4f565b91506133b48261334d565b604082019050919050565b600060208201905081810360008301526133d88161339c565b9050919050565b7f4552433732313a20617070726f76616c20746f2063757272656e74206f776e6560008201527f7200000000000000000000000000000000000000000000000000000000000000602082015250565b600061343b602183612b4f565b9150613446826133df565b604082019050919050565b6000602082019050818103600083015261346a8161342e565b9050919050565b7f4552433732313a20617070726f76652063616c6c6572206973206e6f74206f7760008201527f6e6572206e6f7220617070726f76656420666f7220616c6c0000000000000000602082015250565b60006134cd603883612b4f565b91506134d882613471565b604082019050919050565b600060208201905081810360008301526134fc816134c0565b9050919050565b7f4e487b7100000000000000000000000000000000000000000000000000000000600052601160045260246000fd5b600061353d82612bff565b915061354883612bff565b92508282101561355b5761355a613503565b5b828203905092915050565b600061357182612bff565b915061357c83612bff565b9250827fffffffffffffffffffffffffffffffffffffffffffffffffffffffffffffffff038211156135b1576135b0613503565b5b828201905092915050565b7f4e487b7100000000000000000000000000000000000000000000000000000000600052603260045260246000fd5b60006135f682612bff565b91507fffffffffffffffffffffffffffffffffffffffffffffffffffffffffffffffff820361362857613627613503565b5b600182019050919050565b7f4552433732313a207472616e736665722063616c6c6572206973206e6f74206f60008201527f776e6572206e6f7220617070726f766564000000000000000000000000000000602082015250565b600061368f603183612b4f565b915061369a82613633565b604082019050919050565b600060208201905081810360008301526136be81613682565b9050919050565b7f4552433732313a206f776e657220717565727920666f72206e6f6e657869737460008201527f656e7420746f6b656e0000000000000000000000000000000000000000000000602082015250565b6000613721602983612b4f565b915061372c826136c5565b604082019050919050565b6000602082019050818103600083015261375081613714565b9050919050565b7f4552433732313a2062616c616e636520717565727920666f7220746865207a6560008201527f726f206164647265737300000000000000000000000000000000000000000000602082015250565b60006137b3602a83612b4f565b91506137be82613757565b604082019050919050565b600060208201905081810360008301526137e2816137a6565b9050919050565b7f4f6e6c79206d61726b6574706c616365206f776e65722063616e20757064617460008201527f65206c697374696e672070726963652e00000000000000000000000000000000602082015250565b6000613845603083612b4f565b9150613850826137e9565b604082019050919050565b6000602082019050818103600083015261387481613838565b9050919050565b7f506c65617365207375626d6974207468652061736b696e67207072696365206960008201527f6e206f7264657220746f20636f6d706c65746520746865207075726368617365602082015250565b60006138d7604083612b4f565b91506138e28261387b565b604082019050919050565b60006020820190508181036000830152613906816138ca565b9050919050565b7f45524337323155524953746f726167653a2055524920717565727920666f722060008201527f6e6f6e6578697374656e7420746f6b656e000000000000000000000000000000602082015250565b6000613969603183612b4f565b91506139748261390d565b604082019050919050565b600060208201905081810360008301526139988161395c565b9050919050565b600081905092915050565b60006139b582612b44565b6139bf818561399f565b93506139cf818560208601612b60565b80840191505092915050565b60006139e782856139aa565b91506139f382846139aa565b91508190509392505050565b7f4f6e6c79206974656d206f776e65722063616e20706572666f726d207468697360008201527f206f7065726174696f6e00000000000000000000000000000000000000000000602082015250565b6000613a5b602a83612b4f565b9150613a66826139ff565b604082019050919050565b60006020820190508181036000830152613a8a81613a4e565b9050919050565b7f5072696365206d75737420626520657175616c20746f206c697374696e67207060008201527f7269636500000000000000000000000000000000000000000000000000000000602082015250565b6000613aed602483612b4f565b9150613af882613a91565b604082019050919050565b60006020820190508181036000830152613b1c81613ae0565b9050919050565b7f4552433732313a206f70657261746f7220717565727920666f72206e6f6e657860008201527f697374656e7420746f6b656e0000000000000000000000000000000000000000602082015250565b6000613b7f602c83612b4f565b9150613b8a82613b23565b604082019050919050565b60006020820190508181036000830152613bae81613b72565b9050919050565b7f4552433732313a207472616e736665722066726f6d20696e636f72726563742060008201527f6f776e6572000000000000000000000000000000000000000000000000000000602082015250565b6000613c11602583612b4f565b9150613c1c82613bb5565b604082019050919050565b60006020820190508181036000830152613c4081613c04565b9050919050565b7f4552433732313a207472616e7366657220746f20746865207a65726f2061646460008201527f7265737300000000000000000000000000000000000000000000000000000000602082015250565b6000613ca3602483612b4f565b9150613cae82613c47565b604082019050919050565b60006020820190508181036000830152613cd281613c96565b9050919050565b7f4552433732313a206d696e7420746f20746865207a65726f2061646472657373600082015250565b6000613d0f602083612b4f565b9150613d1a82613cd9565b602082019050919050565b60006020820190508181036000830152613d3e81613d02565b9050919050565b7f4552433732313a20746f6b656e20616c7265616479206d696e74656400000000600082015250565b6000613d7b601c83612b4f565b9150613d8682613d45565b602082019050919050565b60006020820190508181036000830152613daa81613d6e565b9050919050565b7f45524337323155524953746f726167653a2055524920736574206f66206e6f6e60008201527f6578697374656e7420746f6b656e000000000000000000000000000000000000602082015250565b6000613e0d602e83612b4f565b9150613e1882613db1565b604082019050919050565b60006020820190508181036000830152613e3c81613e00565b9050919050565b7f5072696365206d757374206265206174206c6561737420312077656900000000600082015250565b6000613e79601c83612b4f565b9150613e8482613e43565b602082019050919050565b60006020820190508181036000830152613ea881613e6c565b9050919050565b6000608082019050613ec46000830187612c94565b613ed16020830186612c94565b613ede6040830185612ea2565b613eeb6060830184612b1a565b95945050505050565b7f4552433732313a20617070726f766520746f2063616c6c657200000000000000600082015250565b6000613f2a601983612b4f565b9150613f3582613ef4565b602082019050919050565b60006020820190508181036000830152613f5981613f1d565b9050919050565b7f4552433732313a207472616e7366657220746f206e6f6e20455243373231526560008201527f63656976657220696d706c656d656e7465720000000000000000000000000000602082015250565b6000613fbc603283612b4f565b9150613fc782613f60565b604082019050919050565b60006020820190508181036000830152613feb81613faf565b9050919050565b7f4552433732314d657461646174613a2055524920717565727920666f72206e6f60008201527f6e6578697374656e7420746f6b656e0000000000000000000000000000000000602082015250565b600061404e602f83612b4f565b915061405982613ff2565b604082019050919050565b6000602082019050818103600083015261407d81614041565b9050919050565b7f436f756e7465723a2064656372656d656e74206f766572666c6f770000000000600082015250565b60006140ba601b83612b4f565b91506140c582614084565b602082019050919050565b600060208201905081810360008301526140e9816140ad565b9050919050565b600081519050919050565b600082825260208201905092915050565b6000614117826140f0565b61412181856140fb565b9350614131818560208601612b60565b61413a81612b93565b840191505092915050565b600060808201905061415a6000830187612c94565b6141676020830186612c94565b6141746040830185612ea2565b8181036060830152614186818461410c565b905095945050505050565b6000815190506141a081612ab5565b92915050565b6000602082840312156141bc576141bb612a7f565b5b60006141ca84828501614191565b91505092915050565b7f4e487b7100000000000000000000000000000000000000000000000000000000600052601260045260246000fd5b600061420d82612bff565b915061421883612bff565b925082614228576142276141d3565b5b828204905092915050565b600061423e82612bff565b915061424983612bff565b925082614259576142586141d3565b5b82820690509291505056fea2646970667358221220369eb2c16759e0ae221ddf15a9f840e1d17abde97d27d4a7be372b07f6e3a8cb64736f6c634300080d0033",
  "immutableReferences": {},
  "source": "// SPDX-License-Identifier: MIT\npragma solidity ^0.8.4;\n\nimport \"@openzeppelin/contracts/utils/Counters.sol\";\nimport \"@openzeppelin/contracts/token/ERC721/extensions/ERC721URIStorage.sol\";\nimport \"@openzeppelin/contracts/token/ERC721/ERC721.sol\";\nimport \"@openzeppelin/contracts/token/ERC721/ERC721.sol\";\nimport \"@openzeppelin/contracts/security/ReentrancyGuard.sol\";\n\n\ncontract NFTMarketplace is ERC721URIStorage {\n    using Counters for Counters.Counter;\n    Counters.Counter private _tokenIds;\n    Counters.Counter private _itemsSold;\n\n    uint256 listingPrice = 0.025 ether;\n    address payable owner;\n\n    mapping(uint256 => MarketItem) private idToMarketItem;\n\n    struct MarketItem {\n      uint256 tokenId;\n      address payable seller;\n      address payable owner;\n      uint256 price;\n      bool sold;\n    }\n\n    event MarketItemCreated (\n      uint256 indexed tokenId,\n      address seller,\n      address owner,\n      uint256 price,\n      bool sold\n    );\n\n    constructor() ERC721(\"Metaverse Tokens\", \"METT\") {\n      owner = payable(msg.sender);\n    }\n\n    /* Updates the listing price of the contract */\n    function updateListingPrice(uint _listingPrice) public payable {\n      require(owner == msg.sender, \"Only marketplace owner can update listing price.\");\n      listingPrice = _listingPrice;\n    }\n\n\n\n    /* Returns the listing price of the contract */\n    function getListingPrice() public view returns (uint256) {\n      return listingPrice;\n    }\n\n    /* Mints a token and lists it in the marketplace */\n    function createToken(string memory tokenURI, uint256 price) public payable returns (uint) {\n      _tokenIds.increment();\n      uint256 newTokenId = _tokenIds.current();\n\n      _mint(msg.sender, newTokenId);\n      _setTokenURI(newTokenId, tokenURI);\n      createMarketItem(newTokenId, price);\n      return newTokenId;\n    }\n\n    function createMarketItem(\n      uint256 tokenId,\n      uint256 price\n    ) private {\n      require(price > 0, \"Price must be at least 1 wei\");\n      require(msg.value == listingPrice, \"Price must be equal to listing price\");\n\n      idToMarketItem[tokenId] =  MarketItem(\n        tokenId,\n        payable(msg.sender),\n        payable(address(this)),\n        price,\n        false\n      );\n\n      _transfer(msg.sender, address(this), tokenId);\n      emit MarketItemCreated(\n        tokenId,\n        msg.sender,\n        address(this),\n        price,\n        false\n      );\n    }\n\n    /* allows someone to resell a token they have purchased */\n    function resellToken(uint256 tokenId, uint256 price) public payable {\n      require(idToMarketItem[tokenId].owner == msg.sender, \"Only item owner can perform this operation\");\n      require(msg.value == listingPrice, \"Price must be equal to listing price\");\n      idToMarketItem[tokenId].sold = false;\n      idToMarketItem[tokenId].price = price;\n      idToMarketItem[tokenId].seller = payable(msg.sender);\n      idToMarketItem[tokenId].owner = payable(address(this));\n      _itemsSold.decrement();\n\n      _transfer(msg.sender, address(this), tokenId);\n    }\n\n    /* Creates the sale of a marketplace item */\n    /* Transfers ownership of the item, as well as funds between parties */\n    function createMarketSale(\n      uint256 tokenId\n      ) public payable {\n      uint price = idToMarketItem[tokenId].price;\n      address seller = idToMarketItem[tokenId].seller;\n      require(msg.value == price, \"Please submit the asking price in order to complete the purchase\");\n      idToMarketItem[tokenId].owner = payable(msg.sender);\n      idToMarketItem[tokenId].sold = true;\n      idToMarketItem[tokenId].seller = payable(address(0));\n      _itemsSold.increment();\n      _transfer(address(this), msg.sender, tokenId);\n      payable(owner).transfer(listingPrice);\n      payable(seller).transfer(msg.value);\n    }\n\n    /* Returns all unsold market items */\n    function fetchMarketItems() public view returns (MarketItem[] memory) {\n      uint itemCount = _tokenIds.current();\n      uint unsoldItemCount = _tokenIds.current() - _itemsSold.current();\n      uint currentIndex = 0;\n\n      MarketItem[] memory items = new MarketItem[](unsoldItemCount);\n      for (uint i = 0; i < itemCount; i++) {\n        if (idToMarketItem[i + 1].owner == address(this)) {\n          uint currentId = i + 1;\n          MarketItem storage currentItem = idToMarketItem[currentId];\n          items[currentIndex] = currentItem;\n          currentIndex += 1;\n        }\n      }\n      return items;\n    }\n\n    /* Returns only items that a user has purchased */\n    function fetchMyNFTs() public view returns (MarketItem[] memory) {\n      uint totalItemCount = _tokenIds.current();\n      uint itemCount = 0;\n      uint currentIndex = 0;\n\n      for (uint i = 0; i < totalItemCount; i++) {\n        if (idToMarketItem[i + 1].owner == msg.sender) {\n          itemCount += 1;\n        }\n      }\n\n      MarketItem[] memory items = new MarketItem[](itemCount);\n      for (uint i = 0; i < totalItemCount; i++) {\n        if (idToMarketItem[i + 1].owner == msg.sender) {\n          uint currentId = i + 1;\n          MarketItem storage currentItem = idToMarketItem[currentId];\n          items[currentIndex] = currentItem;\n          currentIndex += 1;\n        }\n      }\n      return items;\n    }\n\n    /* Returns only items a user has listed */\n    function fetchItemsListed() public view returns (MarketItem[] memory) {\n      uint totalItemCount = _tokenIds.current();\n      uint itemCount = 0;\n      uint currentIndex = 0;\n\n      for (uint i = 0; i < totalItemCount; i++) {\n        if (idToMarketItem[i + 1].seller == msg.sender) {\n          itemCount += 1;\n        }\n      }\n\n      MarketItem[] memory items = new MarketItem[](itemCount);\n      for (uint i = 0; i < totalItemCount; i++) {\n        if (idToMarketItem[i + 1].seller == msg.sender) {\n          uint currentId = i + 1;\n          MarketItem storage currentItem = idToMarketItem[currentId];\n          items[currentIndex] = currentItem;\n          currentIndex += 1;\n        }\n      }\n      return items;\n    }\n}",
  "sourcePath": "/Users/nindamawarni/NFTMarketplace/contracts/NFTMarketplace.sol",
  "compiler": {
    "name": "solc",
    "version": "0.8.13+commit.abaa5c0e.Emscripten.clang"
  },
  "schemaVersion": "3.4.6",
  "updatedAt": "2022-03-28T00:15:04.062Z",
  "networkType": "ethereum",
  "devdoc": {
    "kind": "dev",
    "methods": {
      "approve(address,uint256)": {
        "details": "See {IERC721-approve}."
      },
      "balanceOf(address)": {
        "details": "See {IERC721-balanceOf}."
      },
      "getApproved(uint256)": {
        "details": "See {IERC721-getApproved}."
      },
      "isApprovedForAll(address,address)": {
        "details": "See {IERC721-isApprovedForAll}."
      },
      "name()": {
        "details": "See {IERC721Metadata-name}."
      },
      "ownerOf(uint256)": {
        "details": "See {IERC721-ownerOf}."
      },
      "safeTransferFrom(address,address,uint256)": {
        "details": "See {IERC721-safeTransferFrom}."
      },
      "safeTransferFrom(address,address,uint256,bytes)": {
        "details": "See {IERC721-safeTransferFrom}."
      },
      "setApprovalForAll(address,bool)": {
        "details": "See {IERC721-setApprovalForAll}."
      },
      "supportsInterface(bytes4)": {
        "details": "See {IERC165-supportsInterface}."
      },
      "symbol()": {
        "details": "See {IERC721Metadata-symbol}."
      },
      "tokenURI(uint256)": {
        "details": "See {IERC721Metadata-tokenURI}."
      },
      "transferFrom(address,address,uint256)": {
        "details": "See {IERC721-transferFrom}."
      }
    },
    "version": 1
  },
  "userdoc": {
    "kind": "user",
    "methods": {},
    "version": 1
  }
}